:020000040800F2
:10000000400A002045010008213300085D2C00084B
:10001000CD31000879090008553E000800000000B5
:10002000000000000000000000000000ED360008A5
:10003000070A00080000000043330008F1360008FA
:100040005F0100085F0100085F0100085F01000810
:100050005F0100085F0100085F0100085F01000800
:100060005F0100085F0100085F0100085F010008F0
:100070007D0900088909000895090008A109000800
:10008000AD090008B90900085F0100085F01000818
:100090005F0100085F0100085F0100085F010008C0
:1000A0005F0100085F0100085F0100085F010008B0
:1000B000D9370008E5370008F13700085F0100086C
:1000C0005F0100085F0100085F0100085F01000890
:1000D0005F010008F53D0008153E0008353E0008A8
:1000E0005F0100085F0100085F0100085F01000870
:1000F0005F0100085F0100085F0100085F01000860
:100100005F0100085F010008FD3700085F0100087B
:10011000313A0008513A00085F0100085F01000809
:100120005F0100085F010008C5090008D109000847
:10013000DFF80CD000F0B0FB00480047C3410008D6
:10014000400A00200648804706480047FEE7FEE7D1
:10015000FEE7FEE7FEE7FEE7FEE7FEE7FEE7FEE777
:100160009137000831010008202A04DB203A21FAE7
:1001700002F00021704721FA02F3D040C2F12002C0
:100180009140084319467047F0B480EA0102D40F49
:100190004200B2EB410F02D20246084611464A0025
:1001A00042D0C30DDDB2C1F3C752AD1A202D35DAEE
:1001B000C1F3160141F4000204B15242C5F1200618
:1001C00002FA06F12A411044B3EBD05F23D0C4B148
:1001D000012DA0EBC35009DCF0BC4FF0004202EA55
:1001E000C352DBB200F5000000F0CBBA400000F1D2
:1001F000807000EBC350A0F1807040EAD1704900DC
:1002000009E0490841EAC071A0EBC35000F50000C5
:10021000400800EBC350F0BC00F0AABA61420122D2
:1002200002EB4101001BF6E7F0BC704781F0004192
:10023000AAE780F00040A7E780EA010210B502F0CB
:100240000043400022D04A001FD0010E01EB126192
:10025000C0F35600C2F3560240F4000042F400021C
:10026000A0FB022000047F39140400D0401C50EA97
:10027000124001D44000491EC2B20C0604EBD0105B
:10028000401C4008802A02D003E0002010BD20F06E
:100290000100002900DA0020184310BD30B480EAC4
:1002A000010202F0004530F0004221F0004013D07E
:1002B00090B1C30DD40DC2F31601C0F31600E41AB9
:1002C00041F4000140F400027D34914201D3641CEA
:1002D00000E04900002C02DA30BC002070474FF4E7
:1002E00000000023914201D3891A034340084FEADA
:1002F0004101F7D151B1914202D14FF0004105E0E7
:1003000002D24FF0010101E06FF0010103EBC45094
:10031000284430BC00F02CBA2DE9FE4F804681EA1B
:100320000300C00F0C46009021F0004123F000456F
:10033000B8EB0200A94105D24046214690461C4632
:100340000B46024623F00040104347D0270DC7F369
:100350000A00C3F30A510290401A019040286BDA58
:10036000C3F3130040F4801B0098924620B1002391
:10037000D2EB030A63EB0B0B01985946C0F1400224
:10038000504600F0D4F906460D4650465946019AAB
:1003900000F0DCF910EB08006141002487EA1152FB
:1003A00084EAE7731A4340D0009A62B3019A012AA3
:1003B0004FEA075215DC001B61EB02014FF00042CF
:1003C00002EA0752CDE90042001C41F58011324695
:1003D0002B4600F013FA03B0BDE8F08F40462146EB
:1003E000F9E7001B61EB0201001C41F580130018C6
:1003F0005B412018A2F5001747EB030140EAD570D6
:10040000B6196D4111E06D084FEA360645EAC07530
:100410004FEA0752001B61EB0201001C41F58011FD
:1004200049084FEA30000019514132462B4603B0CB
:10043000BDE8F04F00F0D3B900980122400000233E
:10044000D0EB020263EBE073009821464FEAE074C0
:10045000B8EB000061EB0401E9E783F000435BE7E0
:1004600081F0004158E72DE9FE4F81EA030404F0D2
:10047000004421F0004100944FF0000B23F00043B2
:1004800050EA01045ED052EA03045BD0C3F30A547D
:10049000C1F30A552C44A4F2F3340194A0FB025496
:1004A000C1F3130141F48011C3F3130343F4801328
:1004B00001FB024400FB034E840A970A44EA81547C
:1004C00047EA8357A4FB076802958D0A05FB078559
:1004D0004FEA932C04FB0C542705029D4FEA065863
:1004E00047EA1637B5EB08056EEB070C870E920E40
:1004F00047EA811742EA8312A7FB0201B6EB0B0120
:1005000064EB00042B0D43EA0C335E1844EB1C50E3
:10051000DA465146E7FB0201C5F313044FEA0B33F9
:1005200043EA14534FEA0432019C43EA0603A4F160
:100530000C040294009CCDE900B400F05FF903B014
:10054000BDE8F08F00200146F9E72DE9F04D81EA82
:10055000030404F0004B21F0004514464FF0000A5C
:1005600023F0004150EA050220D054EA01021DD0D8
:10057000C5F30A570246C5F31303C1F31300C1F3D1
:100580000A5640F4801543F48013A7EB0608101BAD
:10059000D64608F2FD3873EB050002D308F10108D6
:1005A00001E092185B41B8F1000F03DA0020014628
:1005B000BDE8F08D00204FF48011064684460EE021
:1005C000171B73EB050705D3121B63EB05030643EB
:1005D0004CEA010C49084FEA300092185B4150EA9E
:1005E0000107EDD152EA030012D082EA040083EA47
:1005F0000501084305D0101BAB4106D201220023A0
:1006000006E000224FF0004302E06FF001025310B9
:100610001AEB06004CEB085110EB0A0041EB0B0102
:10062000BDE8F04D00F0DBB8C10F80EAE07008448F
:10063000CA079623002100F0A4B896230022114691
:1006400000F09FB800F0004220F00040C10DC0F360
:10065000160040F400007F2901DA00207047962937
:1006600003DCC1F19601C84001E096398840002AB8
:10067000F4D04042704720F00040C10DC0F3160096
:1006800040F400007F2901DA00207047962903DC3E
:10069000C1F19601C8407047963988407047C1F350
:1006A0000A5210B5C1F3130140F2FF3341F4801137
:1006B0009A4201DA002010BD40F233439A42A2F27E
:1006C000334203DC5242FFF74FFD10BD904010BD96
:1006D00000F0004230F000400AD0C10D01F5607119
:1006E000C0F3160042EA0151C208400711437047A7
:1006F00000200146704701F0004330B421F0004172
:1007000050EA010206D00A0DA2F56072C1F313018E
:10071000002A02DC30BC00207047440F44EAC104C8
:10072000C100E01830BC00EBC25000F021B8202A14
:1007300004DB203A00FA02F1002070479140C2F138
:10074000200320FA03F3194390407047202A06DB68
:10075000CB17203A41FA02F043EAE07306E041FA8F
:1007600002F3D040C2F1200291400843194670477D
:100770000029A8BF7047401C490008BF20F00100B5
:10078000704710B4B0FA80FC00FA0CF050EA010493
:1007900004BF10BC704749B1CCF1200421FA04F425
:1007A00011FA0CF118BF012121430843A3EB0C01FE
:1007B000CB1D4FEA00614FEA102042BF002010BC61
:1007C000704700EBC35010440029A4BF10BC704711
:1007D000401C490008BF20F0010010BC704710B554
:1007E000141E73F1000408DA401C41F10001921854
:1007F0005B411A4301D120F0010010BD2DE9F04DFD
:1008000092469B4611B1B1FA81F202E0B0FA80F251
:1008100020329046FFF78BFF04460F4640EA0A005D
:1008200041EA0B0153465A46084313D0114653EA96
:10083000010019D0C8F140025046FFF795FC05466B
:100840000E46504659464246FFF771FF084305D011
:10085000012004E020463946BDE8F08D0020054324
:1008600046EAE0762C4337430A986305E40AA0EB96
:1008700008000022FD0A44EA47540A3002D500204D
:100880000146E9E7010510196941DDE9084500194C
:100890006941BDE8F04DA2E7064C074D06E0E0686F
:1008A00040F0010394E8070098471034AC42F6D3B7
:1008B000FFF742FC684200088842000870B5044611
:1008C00000688168C943C9071BD1816821F0010113
:1008D000816000F035FE05460EE000F031FE401B61
:1008E000022809D9A06A40F01000A062E06A40F036
:1008F0000100E062012070BD20688068C043C0072D
:10090000EBD0002070BD0000F8B50026044600962C
:1009100000688168C943C90727D0816841F0010197
:100920008160134813490068B0FBF1F000E0401EFD
:1009300000900028FBD100F003FE054610E000F017
:10094000FFFD401B02280BD9A06A40F01000A062F6
:10095000E06A40F00100E06284F824600120F8BD04
:1009600020688068C043C007E9D10020F8BD0000BE
:100970009400002040420F00FEE70000014800F014
:1009800041BB0000DC040020014800F03BBB00003C
:10099000AC020020014800F035BB0000100400202C
:1009A000014800F02FBB0000E8010020014800F0E2
:1009B00029BB000054040020014800F023BB0000C4
:1009C00098040020014800F01DBB00008C030020AB
:1009D000014800F017BB00002005002030B590F85A
:1009E00040500124AC40C56B6C6004686360436890
:1009F000102B036803D099600068C26030BD9A6014
:100A00000068C16030BD70470849002008608880D8
:100A1000C880083108608880C880083108608880F4
:100A2000C880083108608880C88070476000002056
:100A30002E4810B50068406A2D4B80B203F10804BF
:100A40001A8842F21071821AE280B4F906208A42B2
:100A500001DDE288E2801880A28800EB024020607D
:100A600024480068406A224C5A8880B21034821AA6
:100A7000E280B4F906208A4201DDE288E2805880F3
:100A8000A28800EB024020601B480068406A184CB6
:100A90009A8880B21834821AE280B4F906208A4219
:100AA00001DDE288E2809880E2885242E280A288FA
:100AB00000EB02404042206010480068406A0C4C45
:100AC000DA8880B22034821AE280B4F906208A42A1
:100AD00001DDE188E180D880E1884942E180A18898
:100AE00000EB01404042206010BD00009800002053
:100AF0005800002018010020D800002058010020D4
:100B000010B51648164C0068A168411AB1F5FA7F75
:100B100022D3A06002F0BCFD1248006802F034FC51
:100B2000114908706078401CC0B26070122801D171
:100B3000012121700C21B0FBF1F201FB1200002811
:100B40000AD12078002807D03223BDE810400122C6
:100B50000549064802F019B810BD000090000020B9
:100B6000080000208400002080000020D003002026
:100B7000F8B50023009390F824201C46012A12D0D7
:100B8000012280F824204A681F26072A0DD2056812
:100B90006F6B521E02EB82029640B7430E6896407E
:100BA00037436F6319E00220F8BD05680D2A0AD2A9
:100BB0002F6BD21F02EB82029640B7430E6896401D
:100BC00037432F6309E0EF6A0D3A02EB8202964049
:100BD000B7430E6896403743EF620A6807260568F8
:100BE0000A2A0AD3EF680A3A02EB42029640B74358
:100BF0008E6896403743EF6008E02F6902EB4202AF
:100C00009640B7438E68964037432F610A68102A92
:100C100001D0112A20D1124D0268AA4217D195683D
:100C20002D0219D4956845F40005956009681029CE
:100C300012D10C490C4A0968B1FBF2F101EB8101B8
:100C4000490000E0491E00910029FBD104E0816ABF
:100C500041F020018162012380F824401846F8BD4C
:100C6000002401409400002040420F000068C06C46
:100C7000704700002DE9F04104004FF000057FD0DF
:100C8000A06A002628B9E66284F82460204600F0B5
:100C900081F82046FFF712FEA16AC90600D420B1F0
:100CA000A06A40F01000A0626AE0A16A21F48851B5
:100CB00041F00201A162334923688B42E16904D10A
:100CC000B1F5402F01D14FF40021E7684FF4807C4B
:100CD00041EA470261680A43A168614508D00129D9
:100CE00006D00021D4F814E0BEF1010F02D00AE0D2
:100CF0006146F7E7C7B1A76A47F02007A762E76A2E
:100D000047F00107E7625F6827F469470F435F60B8
:100D100021688B681C4F3B4013438B60A168614581
:100D20000BD0012909D00CE0DFF860E0A7690EEBD9
:100D300047370F4347F40061E5E7218A0D05A5F524
:100D400080152168CB6A23F470032B43CB622168A2
:100D500089680F4B1940914208D1E662A16A21F0DF
:100D6000020141F00101A162BDE8F081A06A20F01A
:100D7000020040F01000A062E06A40F00100E06272
:100D80000120F1E7003C0140FDF7E1FF00E0FFFF3B
:100D9000FE0E1FFF00B500680F4985B0884219D1CB
:100DA0000E48816941F400718161816901F400712B
:100DB0000491816941F0040181618069694600F014
:100DC0000400049010200090032001900390044838
:100DD00000F0B6FA05B000BD00240140001002404A
:100DE0000008014070B5044690F8240001280DD099
:100DF000012084F824002046FFF786FD01004FF013
:100E0000000205D084F82420084670BD022070BD81
:100E1000A06A40F20123984340F48070A0621F4D05
:100E200020681F4BA84218D11E6816F4702F14D0EA
:100E3000A66A46F48016A6621E68760505D5A66ADF
:100E400026F4005646F48056A662A66AF6040AD531
:100E5000E66A26F00606E66206E0A66A26F4801632
:100E6000A6624668E9E7E26284F824206FF0020295
:100E7000026020688268C2F34242072A05D1A84274
:100E800008D11A6812F4702F04D0826842F48012DC
:100E90008260B9E7826842F4A002F9E700280140C5
:100EA0000424014001680A6822F00E020A60016809
:100EB0000A6822F001020A6090F84020012303FA38
:100EC00002F1C26B516080F82130002180F82010BF
:100ED000084670472DE9F05F90F8211000240229A0
:100EE00003D004218163012485E001680A6822F0AF
:100EF0000E020A6001680A6822F001020A603F4E91
:100F00003E4FB215DFF8F4C0DFF8F090DFF8ECA048
:100F1000DFF8E8B0DFF8E4E00168783F130115027C
:100F2000ACF1640CA9F15009AAF13C0AABF1280B11
:100F3000AEF1140E4FF48018B14227D9B9420ED049
:100F4000614512D049451DD0514518D0594518D09A
:100F5000714501D1424615E0294EB14201D101222D
:100F600010E0274E1436B14201D110220AE0244E7F
:100F70002836B14206D0224A3C32914201D11A466B
:100F800000E02A461E49091F0A602BE0B94213D02F
:100F9000614517D0494522D051451DD059451DD036
:100FA000714501D142461AE0B14202D14FF0807240
:100FB00015E0134EB14201D1012210E0104E14365B
:100FC000B14201D110220AE00D4E2836B14206D0BE
:100FD0000B4A3C32914201D11A4600E02A460749A9
:100FE00080394A60012180F82110002180F820100A
:100FF000416B01B188472046BDE8F09F8000024068
:10100000080402402DE9F05FC16B0B6801680A68B3
:10101000046C4FF0040808FA04F8844D844E854FA0
:10102000DFF814C2DFF81492DFF814A2DFF814B26C
:10103000DFF814E218EA030F65D05FEA427862D560
:101040000A68920603D40A6822F004020A60DFF8F4
:10105000F0814FF48062016808F114081301140252
:10106000414524D9A9420DD0B1420FD0B9421AD07E
:10107000614515D0494515D0514501D1120312E003
:10108000594501D104220EE0714501D140220AE008
:101090006D4D1435A94206D06B4A2832914201D1D8
:1010A0001A4600E022466749091F0A6029E0A94262
:1010B00013D0B14215D0B94220D061451BD049456B
:1010C0001BD0514502D14FF4800217E0414502D1B7
:1010D0004FF0806212E0594501D104220EE07145C3
:1010E00001D140220AE0584D1435A94206D0564A93
:1010F0002832914201D11A4600E022464B49083974
:101100004A60C16A71E04FF0020808FA04F818EA70
:10111000030F70D05FEA82786DD50A68920606D414
:101120000A6822F00A020A60012180F82110DFF823
:1011300010814FF40072016808F1140813011402C1
:10114000414524D9A9420DD0B1420FD0B9421AD09D
:10115000614515D0494515D0514501D1120312E022
:10116000594501D102220EE0714501D120220AE049
:10117000354D1435A94206D0334A2832914201D167
:101180001A4600E022462F49091F0A6029E0A942B9
:1011900013D0B14215D0B94220D061451BD049458A
:1011A0001BD0514502D14FF4001217E0414502D146
:1011B0004FF0007212E0594501D102220EE0714554
:1011C00001D120220AE0204D1435A94206D01E4A42
:1011D0002832914201D11A4600E0224613490839CB
:1011E0004A60002180F82010816A00291CD0BDE8E7
:1011F000F05F0847FFE70825A5401D4214D01207FD
:1012000012D50A6822F00E020A6090F84020C36BE3
:10121000012101FA02F25A60816380F82110002155
:1012200080F82010016BE0E7BDE8F09F0800024065
:101230001C000240300002404400024058000240BE
:101240006C000240080402401C04024030B560B14A
:101250001C4B01681422994209D21B4B0B44B3FB6F
:10126000F2F292000264194A0AE0012030BD154BE7
:101270005B420B44B3FBF2F292000264114A083A5B
:10128000C263022280F821200A6843F6F0739A4371
:10129000F0E901342343D0E902452C432343046998
:1012A0002343446923438469234313430B60002190
:1012B00041628162C1620163416301224277017729
:1012C000084630BD08040240F8FFFDBF00000240A0
:1012D00070B5044690F82000002501280CD00120AC
:1012E00084F8200094F821600020012E06D084F8B4
:1012F00020000225284670BD022070BD022684F819
:101300002160A0632068066826F00106066020467A
:10131000FFF764FBE06A00282068016802D041F012
:101320000E0106E021F0040101602068016841F02F
:101330000A0101602068016841F001010160D9E7FC
:101340002DE9F84FDFF8BC91002309F1040A0AF1F6
:10135000040B1C464FF00F080BF1040E01270A681E
:10136000A7403A40BA4272D1DFF89CC14D68A5EB64
:101370000C0665452BD00DDC032D34D005DC35B3D0
:10138000012D19D0022D2FD11BE0112D16D0122DB9
:101390002AD119E0B6F5881F19D006DCB6F5803FD2
:1013A00015D0B6F5801F1FD111E0B6F5001F0ED085
:1013B000B6F5041F18D10AE0CB6815E0CB681B1DF9
:1013C00012E0CB6808330FE0CB680C330CE08B687D
:1013D0002BB1012B4FF0080303D0476104E0042335
:1013E00002E0076100E00023FF2A01D8064601E081
:1013F00000F104064FEA840501D9A5F120053768FC
:1014000008FA05FC27EA0C0703FA05F547EA050781
:1014100037604D68ED006ED53C4DAE6946F0010673
:10142000AE61AD6924F0030605F001050095384D65
:101430007719BE68A5072D0F08FA05FC26EA0C06E9
:10144000DFF8D0C0604503D14FF0000C25E052E03A
:10145000DFF8C4C0604502D14FF0010C1DE0DFF899
:10146000BCC0604502D14FF0020C16E0DFF8B0C0FE
:10147000604502D14FF0030C0FE0DFF8A8C06045D3
:1014800002D14FF0040C08E0DFF89CC0604502D1A7
:101490004FF0050C01E04FF0060C0CFA05FC4CEA8D
:1014A000060CC7F808C04D68D9F80060ED034D463A
:1014B00001D5164300E096432E604D68DAF80060CF
:1014C000AD03554601D5164300E096432E604D68A6
:1014D000DBF80060ED025D4601D5164300E096435F
:1014E0002E604D68DEF80060AD02754601D51643EA
:1014F00000E096432E60641C102CFFF42FAFBDE873
:10150000F88F00000004014000001110001002409C
:101510000000014000080140000C014000100140A3
:101520000014014000180140001C0140C2684A40FC
:10153000C26070470AB1016170470904FBE700000F
:1015400001488068704700008800002002488168D8
:10155000027811448160704788000020074810B568
:10156000016841F010010160032000F095F80020AF
:1015700000F006F800F024F8002010BD0020024022
:1015800070B50D4D04464FF47A712878B1FBF0F038
:101590000A490968B1FBF0F000F0A8FB48B9102C2B
:1015A00007D200222146501E00F056F800206C6041
:1015B00070BD012070BD0000880000209400002054
:1015C0001D4808B5816941F001018161806900F021
:1015D00001000090032000F05FF8002211466FF038
:1015E0000B0000F039F8002211466FF00A0000F0FD
:1015F00033F8002211466FF0090000F02DF80022A8
:101600001146501F00F028F800221146101F00F06C
:1016100023F800221146901E00F01EF80022114609
:10162000501E00F019F80549486820F0E06040F0CD
:101630000070486008BD000000100240000001403A
:1016400000F01F02012191404009800000F1E020DC
:10165000C0F8001170470000F0B40E4B1B68C3F3D4
:101660000223C3F10704042C00D904241D1D072DF7
:1016700001D2002300E0DB1E012606FA04F56D1EF0
:101680000D409D409E40761E164045EA0601F0BC86
:1016900001F047BE0CED00E0064A00F007011068BB
:1016A0004FF6FF03184040EA012003490843106049
:1016B000704700000CED00E00000FA052DE9F8434A
:1016C00004460078344FC00752D0F8690025C000A6
:1016D00008D4F86940F08050F861F869012500F0FD
:1016E000805000902D480168C90511D401688046DA
:1016F00041F480710160FFF723FF064604E0FFF725
:101700001FFF801B642822D8D8F80000C005F6D53A
:10171000386A10F4407020D0A18801F440718142F1
:101720001BD0386A1E49012220F440700A60002252
:101730000A603862C00710D0FFF702FF064641F288
:10174000883807E0FFF7FCFE811B414502D90320E2
:10175000BDE8F883386A8007F4D5386A616820F4F8
:101760004070084338621DB1F86920F08050F8617C
:101770002078800705D57868A16820F440400843A8
:1017800078602078C00605D57868616920F480000B
:10179000084378600020DBE7001002400070004042
:1017A000400442422DE9F047DFF8348104460E46FA
:1017B000D8F8000000F00700B0420CD2D8F80010B2
:1017C00021F007013143C8F80010D8F8000000F0FC
:1017D0000700B04260D12078424F800705D5786875
:1017E000A16820F0F000084378602078C00742D05C
:1017F0006068012816D03968022816D089070029A8
:101800004ADA796821F0030101437960FFF798FE15
:101810000546606841F2883101280ED002288946C9
:1018200017D024E039688903E9E78901E7E7FFF782
:1018300087FE411B494501D916E089467868C0F307
:1018400081000128F3D116E0FFF77AFE411B4945DC
:101850000AD87868C0F381000228F5D10BE0FFF7C1
:101860006FFE411B494502D90320BDE8F087786827
:1018700010F00C0FF3D1D8F80010404601F007012A
:10188000B1420BD9016821F00701314301600068C2
:1018900000F00700B04201D00120E6E720784007C1
:1018A00005D57868E16820F4E06008437860207826
:1018B000000706D57868216920F4605040EAC1002D
:1018C000786000F03BF87968074AC1F30311515C76
:1018D000C840064908600020FFF752FE0020C4E718
:1018E00000200240001002405042000894000020F6
:1018F0000148006870470000940000200448054932
:1019000000684968044AC1F30221515CC84070472D
:10191000940000200010024060420008044805497D
:1019200000684968044AC1F3C221515CC84070474D
:1019300094000020001002406042000812A085B010
:101940000FC88DE80F0014A0144B0068049059686C
:10195000134801F00C02042A10D0082A0ED1C1F35A
:101960008342C9031DF802000AD5596804AAC1F3CD
:101970004041515C0A4A5043B0FBF1F005B070475A
:1019800008494843FAE7000002030405060708096E
:101990000A0B0C0D0E0F1010010200000010024087
:1019A00000127A0000093D002DE9F84F0446007846
:1019B000B64DC00747D06868C0F38100012807D042
:1019C0006868C0F38100022809D16868C00306D5A1
:1019D0002868800337D5606800286ED033E06068DF
:1019E000B0F5803F0BD010B1B0F5A02F11D0286812
:1019F00020F480302860286820F4802002E02868E5
:101A000040F480302860606888B1FFF799FD064691
:101A100009E0286840F480202860F0E7FFF790FD97
:101A2000801B642873D828688003F7D50BE0FFF784
:101A300087FD064604E0FFF783FD801B6428F1D88C
:101A400028688003F7D42078DFF8448280074FF0BD
:101A5000010A4FF0000939D5686810F00C0F07D063
:101A60006868C0F38100022809D16868C00306D401
:101A70002868800713D5206901281ED10FE020694E
:101A8000A8B1C8F800A0FFF75BFD064604E0FFF729
:101A900057FD801B0228C5D828688007F7D528681D
:101AA000616920F0F80040EAC10028600EE0C8F843
:101AB0000090FFF745FD064605E0E5E0FFF740FD35
:101AC000801B022823D828688007F7D420780007D5
:101AD0002CD57049A069D8B1C1F800A0FFF730FD3E
:101AE000064604E0FFF72CFD801B02280FD8686A29
:101AF0008007F7D568484FF4FA510068B0FBF1F061
:101B0000009000BF0098411E0091FAD20EE07CE0E8
:101B1000C1F80090FFF714FD064604E0FFF710FD42
:101B2000801B022871D8686A8007F7D420784007A4
:101B30005BD5E8690027C00008D4E86940F0805010
:101B4000E861E869012700F080500090534801687F
:101B5000C90511D40168834641F480710160FFF723
:101B6000EFFC064604E0FFF7EBFC801B64284CD832
:101B7000DBF80000C005F6D5E06801280AD008B1FE
:101B8000052813D0286A20F001002862286A20F076
:101B9000040002E0286A40F001002862E06841F297
:101BA000883B88B1FFF7CCFC064609E0286A40F084
:101BB00004002862EEE7FFF7C3FC811B59455BD8A0
:101BC000286A8007F7D50BE0FFF7BAFC064604E069
:101BD000FFF7B6FC811B59454ED8286A8007F7D419
:101BE0001FB1E86920F08050E861E069A8B3696836
:101BF000C1F38101022947D00228484606D0C8F81F
:101C00006000FFF79DFC044639E035E04746C8F820
:101C10006000FFF795FC064604E0FFF791FC801B8F
:101C2000022829D828688001F7D4206AB0F5803FBF
:101C300005D16868A16820F4003008436860D4E9E1
:101C400008010843696821F4741108436860C7F803
:101C500060A0FFF775FC044605E013E0FFF770FC99
:101C6000001B022808D828688001F7D50AE0FFF792
:101C700067FC001B022802D90320BDE8F88F286802
:101C80008001F4D40020F8E70120F6E700100240BC
:101C90000000424280044242940000200070004054
:101CA0004FF0E0210428086903D020F00400086107
:101CB000704740F00400FAE70948018811B1018833
:101CC000491E01800748018811B10188491E018021
:101CD0000548018811B10188491E018001F028B82A
:101CE00000000020020000200400002010B5401E6B
:101CF000B0F1807F01D3012010BD4FF0E02460617E
:101D00000F21601701F00DFB0020A061072020616A
:101D1000002010BD10B5FFF7CFFF10BD7047704712
:101D200010B590F83C20012A25D0012280F83C20F3
:101D3000CA688C6822F4407222434C6822F48062A4
:101D400022430C6822F4006222430C6922F4805280
:101D500022434C6922F400522243896922F48042D2
:101D60000A43002322F400420A4301684A6480F8CF
:101D70003C30002010BD022010BD30B590F83C2052
:101D8000012A20D0012380F83C30022280F83D2037
:101D90000268546824F070045460026854680D6846
:101DA0002C4354600268946824F0800494600268B4
:101DB000946849680C43946080F83D30002180F8B5
:101DC0003C10084630BD022030BD2DE9F0410D46E3
:101DD000040003D094F83D0018B108E00120BDE8EC
:101DE000F081002084F83C00204600F039F8022001
:101DF00084F83D002068816821F007018160211D81
:101E0000206801F001FD206881688269066A2B68FC
:101E1000AF690B4340F203318A4342EA0722A968C3
:101E2000EF6911434FF6FC429143EA6841EA07210A
:101E30000A4329692F6A090141EA0737696817438C
:101E40006D6926F0AA0242EA0512114383602068F8
:101E5000876120680162012084F83D000020BEE710
:101E60002DE9F04704460068DFF86C91DFF86CA1BB
:101E700000265B4D022786B0B0F1804F3AD1E86969
:101E800040F00100E861E869564900F00100049063
:101E9000486820F4407040F0E06040F48070486092
:101EA000A86940F00400A861A86900F0040004904B
:101EB000A86940F00800A861A869694600F0080018
:101EC0000490B803CDE900065046CDE90267FFF75C
:101ED00037FA0820CDE9000669464846CDE9026791
:101EE000FFF72EFA002201211C20FFF7B5FB1C2072
:101EF000FFF7A6FB3C4920684FF0C00888421FD17D
:101F0000E86940F00200E861E86900F0020004902E
:101F1000A86940F00400A861A869CDE9008600F036
:101F200004000296CDE9037069465046FFF708FAAF
:101F3000012211461D20FFF78FFB1D20FFF780FBBC
:101F40002A49206888421FD1E86940F00400E8610E
:101F5000E86900F004000490A86940F00800A86156
:101F6000A869CDE9008600F008000296CDE903706B
:101F700069464846FFF7E4F9022201211E20FFF7D7
:101F80006BFB1E20FFF75CFB19492068884220D1BB
:101F9000E86940F00800E861E86900F00800049092
:101FA000A86940F00400A861A869694600F004002F
:101FB00004900320CDE900065046CDE90267FFF703
:101FC000BFF9032201213220FFF746FB3220FFF741
:101FD00037FB06B0BDE8F087000C01400008014067
:101FE00000100240000001400004004000080040D2
:101FF000000C004010B50446006889B1042904D0E3
:102000000122002101F046FC20680122042101F098
:1020100041FC2068016841F001010160002010BD11
:1020200001220021F3E7704770B50446006801699A
:102030004FF00005C943890715D4C168C943890712
:1020400011D4E91E01610120207720688069800792
:10205000204602D0FFF7E7FF04E000F098F82046A2
:1020600000F044F9257720680169C943490717D46E
:10207000C168C943490713D46FF00401016102200C
:1020800020772068806910F4407F204602D0FFF757
:10209000CAFF04E000F07BF8204600F027F925771E
:1020A00020680169C943090716D4C168C9430907F3
:1020B00012D46FF008010161042020772068C06904
:1020C0008007204602D0FFF7AEFF04E000F05FF883
:1020D000204600F00BF9257720680169C943C9063D
:1020E00017D4C168C943C90613D46FF01001016148
:1020F000082020772068C06910F4407F204602D075
:10210000FFF791FF04E000F042F8204600F0EEF8FF
:10211000257720680169C943C90708D1C168C94347
:10212000C90704D1891E0161204600F0FDF820682E
:102130000169C943090609D4C168C943090605D420
:102140006FF0800101612046FFF7E8FD206801691A
:10215000C943490609D4C168C943490605D46FF08B
:1021600040010161204600F033F920680169C9434C
:1021700089060BD4C168C943890607D46FF02001D2
:1021800001612046BDE87040FFF7C9BD70BD7047D2
:1021900070B5044690F83C000D4601280DD001268C
:1021A00084F83C60022084F83D0042B1042A18D033
:1021B000082A2AD00C2A4DD139E0022070BD2068AF
:1021C00001F074FB2068816941F008018161206899
:1021D000816921F004018161206881692A691143C4
:1021E00011E0206801F092FB2068816941F40061F0
:1021F00081612068816921F4806181612068816941
:102200002A6941EA0221816124E0206801F0B4FBDF
:102210002068C16941F00801C1612068C16921F0ED
:102220000401C1612068C1692A69114311E0206875
:1022300001F0D6FB2068C16941F40061C1612068EA
:10224000C16921F48061C1612068C1692A6941EADC
:102250000221C16184F83D60002084F83C0070BD1B
:1022600010B5040003D094F83D0010B107E0012040
:1022700010BD002084F83C00204600F00DF802203C
:1022800084F83D00211D206801F0BEFA012084F889
:102290003D00002010BD000000B50068104985B069
:1022A00088421AD10F48816941F4005181618169E6
:1022B00001F400510491816941F01001816180694C
:1022C000694600F0100004904FF4707000900220F6
:1022D000019003900448FFF733F805B000BD0000FB
:1022E000003401400010024000100140704700001F
:1022F00010B504460068012201F0CCFA08482168B4
:10230000814202D00748814203D1486C40F400402A
:1023100048642068016841F001010160002010BD9F
:10232000002C0140003401400168B1F1804F0AD116
:102330001C4909680968CA061B498A8801D5521ECA
:1023400000E0521C8A80194A016891420AD118495A
:1023500009680968CA0617498A8801D5521E00E033
:10236000521C8A80144A016891420AD113490968B3
:102370000968CA0612498A8801D5521E00E0521C1B
:102380008A8000680F4988420AD10F4800680068B7
:10239000C1060E48818801D5491E00E0491C818094
:1023A00070470000980000206000002000040040FA
:1023B000180100206800002000080040D80000201C
:1023C00070000020000C0040580100207800002020
:1023D000704710B504460068416994F83920C1F38C
:1023E000C011212A0BD151B1416921F08001416115
:1023F000206B08B1FEF756FD204601F08DFB2068EA
:10240000416994F83A20C1F38011222A0BD151B1CD
:10241000416921F040014161606B08B1FEF742FD66
:10242000204601F06BFB002010BD01680A680A68B5
:10243000D243D20703D14A686FF001020A600168F3
:102440000A68D243920703D44A686FF002020A6016
:1024500001680A68D243520703D44A686FF0040245
:102460000A6000680168C943090703D4C1686FF0B6
:10247000080101607047000070B5026804461068EA
:10248000D168536910F00F0F50D003F0010501F42B
:10249000907635435DD0C20705D0CA0503D5E26BFF
:1024A00042F00102E263420705D5DA0703D0E26B8E
:1024B00042F00202E263820705D5DA0703D0E26B3D
:1024C00042F00402E263020705D5DA0703D0E26BAB
:1024D00042F00802E263E26B002A33D0800604D5A2
:1024E000880602D5204601F020FB20684069E16B98
:1024F000C0F38010090700D428B3204601F0FEFA8B
:102500002068416949061AD5416921F040014161BD
:10251000606BA0B11B494163606BFEF7DBFC0028D8
:1025200010D0606B416BBDE870400847830610D542
:102530008B060ED52046BDE8704001F0F6BA204665
:10254000FFF773FF70BD2046FFF76FFF0020E063C9
:1025500070BD030606D50B0604D52046BDE87040C5
:1025600001F0E6BB4006F3D54806F1D5D168204618
:1025700021F04001D160202184F8391000F062FB85
:1025800070BD00005D3A000870B5040004D094F8F6
:102590003900002510B106E0012070BD84F83850E4
:1025A000204600F023F8242084F839002068C16810
:1025B00021F40051C160204601F002FB206801694E
:1025C00021F4904101612068416921F02A014161B3
:1025D0002068C16841F40051C160E563202084F89F
:1025E000390084F83A00002070BD00002DE9F04F5A
:1025F00004460068FE490025DFF8F883032785B00C
:102600004FF0800A4FF00209884270D1D8F81800C4
:10261000464640F48040C8F81800D8F8180000F486
:1026200080400490D8F8180040F00400C8F8180062
:10263000D8F81800DFF8C0B300F004000490481583
:10264000CDE90009694603975846FEF779FE4FF435
:102650008060CDE90005CDE9025769465846FEF78E
:102660006FFE706940F0010070617069E44E00F027
:1026700001000490E14801C61020A6E82104E048CA
:1026800046F810597561B561F561FEF7DFFDDFF8B9
:1026900074B3DA48CBF83060C6F824B0DA4E1430A0
:1026A000C6E90005C6E9025A35617561B561304673
:1026B000F561FEF7CBFDCBF83460002201210E203E
:1026C000C6F824B0FEF7C8FF0E20FEF7B9FF0022BF
:1026D00001210F20FEF7C0FF0F20FEF7B1FF0022FF
:1026E00001212520FEF7B8FF2520FEF7A9FFC749E5
:1026F0002068884270D1D8F81C00464640F400306B
:10270000C8F81C00D8F81C0000F400300490D8F879
:10271000180040F00400C8F81800D8F81800DFF8D6
:10272000D8B200F0040004900420CDE90009694605
:1027300003975846FEF704FE0820CDE90005CDE9D1
:10274000025769465846FEF7FBFD706940F00100EC
:1027500070617069AE4E00F001000490A7483C30F3
:1027600001C61020A6E82104A94846F81059756151
:10277000B561F561FEF76AFDDFF898B29F48CBF8C6
:102780003060C6F824B0A44E2830C6E90005C6E97A
:10279000025A35617561B5613046F561FEF756FD47
:1027A000CBF83460002201211020C6F824B0FEF7D7
:1027B00053FF1020FEF744FF002201211120FEF7F5
:1027C0004BFF1120FEF73CFF002201212620FEF7DF
:1027D00043FF2620FEF734FF904920684FF4006B3A
:1027E000884267D1D8F81C00464640F48020C8F8DB
:1027F0001C00D8F81C0000F480200490D8F81800C1
:1028000040F00800C8F81800D8F81800039700F046
:10281000080004900815CDE9000969468048FEF7D4
:102820008FFDCDE900B5CDE9025769467C48FEF73A
:1028300087FD706940F0010070617069794E00F0A9
:10284000010004906D48283801C61020A6E8210434
:10285000744846F810597561B561F561FEF7F6FCEC
:10286000266374626548704E1438C6E90005C6E9EF
:10287000025A35617561B5613046F561FEF7E6FCD7
:102880006663002201210C207462FEF7E5FE0C2035
:10289000FEF7D6FE002201210D20FEF7DDFE0D2001
:1028A000FEF7CEFE002201212720FEF7D5FE2720CD
:1028B000FEF7C6FE5D492068884266D1D8F81C0044
:1028C000464640F40020C8F81C00D8F81C0000F46C
:1028D00000200490D8F8180040F01000C8F8180044
:1028E000D8F81800039700F0100004900815CDE9FF
:1028F000000969464E48FEF723FDCDE900B5CDE954
:10290000025769464A48FEF71BFD706940F0020015
:1029100070617069484E00F002000490454801C69D
:102920001020A6E82104444846F810597561B561A5
:10293000F561FEF78BFC266374623E483F4E2838F3
:10294000C6E90005C6E9025A35617561B5613046D0
:10295000F561FEF77BFC6663002201213A20746278
:10296000FEF77AFE3A20FEF76BFE002201213B20A3
:10297000FEF772FE3B20FEF763FE022201213420A7
:10298000FEF76AFE3420FEF75BFE2D492068884280
:1029900065D1D8F81C1041F48011C8F81C10D8F883
:1029A0001C1001F480110491D8F8181041F01001A6
:1029B000C8F81810D8F8181001F010010491D8F8D0
:1029C000181041F02001C8F81810D8F8180069460E
:1029D00000F0200004904FF48050CDE900090397E7
:1029E0001348FEF7ADFC0420CDE90005694629E057
:1029F000003801400010024000080140440002403D
:102A00001004002098010020E8010020004400404C
:102A1000980400202C0200205404002000480040AC
:102A2000000C0140DC040020AC020020004C0040FF
:102A30000010014058040240200500208C030020B3
:102A400000500040CDE902570648FEF779FC02220B
:102A500001213520FEF700FE3520FEF7F1FD05B01F
:102A6000BDE8F08F0014014037B5044690F83A00F5
:102A700082B0134620283AD1039AAAB3A3B394F89C
:102A80003800012833D0012084F83800A262A385E1
:102A90000025E563222084F83A00616B15488862BE
:102AA000616B1548C862616B14480863606B4563CD
:102AB0002168606B091DFEF70BFC20680168416806
:102AC000009184F83850C16841F48071C160206879
:102AD000416941F0010141612068416941F04001D3
:102AE0004161002005B030BDFFE70120FAE7022078
:102AF000F8E70000B73A0008F33A00086D3A00081A
:102B000090F83A30202B22D1F9B1F2B190F8383058
:102B1000012B1CD081628285C2850021C1632222E3
:102B200080F83A2080F838100168CA6842F4807250
:102B3000CA6001684A6942F001024A610068C168DE
:102B400041F02001C1600020704701207047022041
:102B50007047000010B50068084988420CD1012276
:102B600007490848FFF7CCFF05480121401E40787F
:102B7000BDE8104000F0B0BD10BD000000500040A6
:102B80001D000020D003002070472DE9F8430446C3
:102B900090F839001E4617460D46202850D1A5B1A1
:102BA0009FB194F8380001284AD0012084F83800F9
:102BB0004FF00008C4F83C80212084F83900FEF76B
:102BC000BFFCA7848146E78426E00120BDE8F883A6
:102BD000E08C401EE084A0684B46B0F5805F4FF06B
:102BE00000024FF080012046009603D001F0D1F89A
:102BF000E8B90DE001F0CDF8C8B928882168C0F324
:102C000008004860206908B16D1C05E0AD1C03E0B8
:102C1000216815F8010B4860E08C0028D8D14B469C
:102C2000002240212046009601F0B3F808B10320AD
:102C3000CCE7202084F8390084F838800020C5E7EC
:102C40000220C3E700680349884202D102490120FB
:102C500008707047004800401C000020FEE700009C
:102C60000448034901600449416004498160704798
:102C700033333340D40500206666663FCDCCCC3E6E
:102C80000448034901600449416004498160704778
:102C900033333340040600206666663FCDCCCC3E1D
:102CA0000448034901600449416004498160704758
:102CB00033333340EC0500206666663FCDCCCC3E16
:102CC0000448034901600449416004498160704738
:102CD000333333401C0600206666663FCDCCCC3EC5
:102CE0002DE9F041551A0446C5604069266928441B
:102CF000714200EB4100FDF797FCA168FDF79CFADB
:102D000080462846FDF790FC6168FDF795FA074676
:102D1000A81BFDF789FC2168FDF78EFA3946FDF7FF
:102D200033FA4146FDF730FAC4E90456BDE8F081B4
:102D300070B5214CE08810B1E088401EE0806089C9
:102D400010B16089401E6081E08910B1E089401EA9
:102D5000E0812078194D60B9E08850B9A08840B171
:102D600004212846FEF7E2FBA088401EA080A08B2D
:102D7000E080607860B9608950B9208940B1012154
:102D80002846FEF7D3FB2089401E2081E08B60811E
:102D9000A07800280ED1E08900280BD1A089002856
:102DA00008D002212846FEF7C1FBA089401EA08161
:102DB000208CE08170BD00001E000020001001404A
:102DC00002490148086070479A99993E34060020EC
:102DD00070B50568044629464FF07E50FDF726FA87
:102DE0006168FDF729FA06462846A168FDF724FA2E
:102DF0003146FDF7C9F9606070BD00003EB50D4871
:102E00000B49012401600021C0E9021441614FF423
:102E100060220461C2614160FDF72CFF0420CDE90E
:102E200000040520029069460248FDF7A1FE3EBD60
:102E300000240140A40500201A4810B581698AB019
:102E400041F0010181618069174C00F00100099097
:102E50004FF080420020C4E900204FF6FF71C4E922
:102E6000020120610321CDE900100121CDE902100A
:102E70000490CDE90501079008905062694620460C
:102E8000FEF7A3FF21686FF0010008612068C168A8
:102E900041F00101C16004212046FFF7ABF80AB000
:102EA00010BD0000001002409800002010B5164C24
:102EB0008AB0144A0020C4E900204FF6FF71C4E92B
:102EC000020120610321CDE900100121CDE90210AA
:102ED0000490CDE9050107900890506269462046AC
:102EE000FEF773FF21686FF0010008612068C16878
:102EF00041F00101C16004212046FFF77BF80AB0D0
:102F000010BD0000000400401801002010B5164C50
:102F10008AB0144A0020C4E900204FF6FF71C4E9CA
:102F2000020120610321CDE900100121CDE9021049
:102F30000490CDE90501079008905062694620464B
:102F4000FEF743FF21686FF0010008612068C16847
:102F500041F00101C16004212046FFF74BF80AB09F
:102F600010BD000000080040D800002010B5164C2D
:102F70008AB0144A0020C4E900204FF6FF71C4E96A
:102F8000020120610321CDE900100121CDE90210E9
:102F90000490CDE9050107900890506269462046EB
:102FA000FEF713FF21686FF0010008612068C16817
:102FB00041F00101C16004212046FFF71BF80AB06F
:102FC00010BD0000000C00405801002010B52A4838
:102FD00090B0284901604721416040F2E731002468
:102FE000C0E90314846044618461FFF739F90E94E9
:102FF0000EA921480F94FEF7C0FE602000904FF408
:103000007A70CDE901040394049405940022694682
:1030100019480694FFF7BCF8042269461648FFF7E2
:10302000B7F8082269461448FFF7B2F80C2269463F
:103030001148FFF7ADF80794089409944FF4005035
:103040000A94CDE90B4007A90B480D94FEF768FEE2
:1030500000210948FFF74CF904210748FFF748F918
:1030600008210548FFF744F90C210348FFF740F910
:1030700010B010BD003401406405002010B5114CA3
:103080000F484FF4806120604FF4165060604FF499
:103090008050A0600020C4E903010C21C4E90510A0
:1030A000E0612046FFF770FA1E2204F1400120463D
:1030B000FFF7DAFC2068C16841F01001C16010BD63
:1030C000004C00402C0300200C4810B50A49016058
:1030D0004FF4E1314160002181600C22C160C0E900
:1030E00004128161C161FFF74FFABDE8104001226F
:1030F00003490248FFF704BD00500040D003002000
:103100001D00002010B5114C0F484FF48061206065
:103110004FF4165060604FF48050A0600020C4E966
:1031200003010C21C4E90510E0612046FFF72CFAE9
:103130000F2204F140012046FFF796FC2068C16889
:1031400041F01001C16010BD00380140980100201D
:1031500010B50C4C0A480C2120604FF4E13060603F
:103160000020A060E060C4E90401A061E0612046A5
:10317000FFF70AFA2068C16841F01001C16010BD74
:10318000004400402C02002010B50F4C0D480C21CB
:1031900020604FF4E13060600020A060E060C4E98E
:1031A0000401A061E0612046FFF7EEF91E2204F160
:1031B00084012046FFF758FC2068C16841F01001E7
:1031C000C16010BD004800406C020020FEE7000016
:1031D00000224FF480510148FEF7ACB9000C0140C9
:1031E000012211030148FEF7A5B90000000C0140BF
:1031F00000224FF400510148FEF79CB9000C014039
:10320000012251030148FEF795B90000000C01406E
:1032100000224FF480410148FEF78CB9000C0140B8
:10322000012291030148FEF785B90000000C01401E
:1032300000224FF400410148FEF77CB9000C014028
:103240000122D1030148FEF775B90000000C0140CE
:103250000E4810B5816986B041F00801816180692E
:103260004FF4704100F0080004900120CDE90010F7
:103270000220074C039000222046FEF75BF96946C6
:103280002046FEF75DF806B010BD000000100240B9
:10329000000C01402DE9F0411B481C4C006861689E
:1032A000411A0A2918D3606000F03AFE94F802C06F
:1032B0003226012716481749174A184B7542BCF1A8
:1032C000050F09D2DFE80CF0030A0F1419000024DF
:1032D00004800C8014801C80BDE8F08106800E8084
:1032E00016801E80F8E705800D8015801D80F3E7AD
:1032F00005800E8015801E8003E006800D801680FC
:103300001D80E770E8E70000900000200800002022
:103310004000002042000020440000204600002021
:1033200070470907090E002806DA00F00F0000F1C7
:10333000E02080F8141D704700F1E02080F80014B0
:10334000704770470E4810B5816986B041F0100192
:10335000816180694FF4804100F0100004900120E9
:10336000CDE900100220074C039001222046FEF711
:10337000E1F869462046FDF7E3FF06B010BD000006
:1033800000100240001001402DE9F05F8F4D2946EA
:10339000FCF784FF8E498F4E8F4C884214DDFDF779
:1033A00097F98E4A8E4BFDF758F8FDF7A4F9FDF713
:1033B0008FF932468B4BFDF7C8F800222346FDF704
:1033C00052F80022884B18E08849DFF824828842AE
:1033D00016DBFDF77DF9874A874BFDF73EF8FDF7D1
:1033E0008AF9FDF775F94246844BFDF7AEF80022E5
:1033F0002346FDF738F80022814BFCF78DFFDAE019
:103400008049DFF804B2DFF80492884215DBFDF74B
:103410005FF94FEA6B027E4BFDF71FF8FDF76BF982
:10342000FDF756F95A464B46FDF78FF80022234622
:10343000FDF719F80022774BDFE77749DFF8DCA1C9
:10344000774F884214DDFDF743F9764A764BFDF756
:1034500004F8FDF750F9FDF73BF952463B46FDF7FE
:1034600074F800222346FCF7FEFF00226F4BC4E7EE
:103470006F49884214DDFDF72BF96E4A6E4BFCF75D
:10348000ECFFFDF738F9FDF723F952463B46FDF70F
:103490005CF800222346FCF7E6FF0022674BACE70E
:1034A0006749684F884214DDFDF712F9664A674B99
:1034B000FCF7D3FFFDF71FF9FDF70AF95A463B4623
:1034C000FDF743F800222346FCF7CDFF0022604BB6
:1034D00093E76049884215DDFDF7FAF8454A5E4BEF
:1034E0005242FCF7BAFFFDF706F9FDF7F1F8424644
:1034F0005A4BFDF72AF800222346FCF7B4FF0022BE
:10350000574B7AE75749884214DBFDF7E1F832461A
:10351000554BFCF7A2FFFDF7EEF8FDF7D9F85A4638
:103520003B46FDF712F800222346FCF79CFF0022E1
:103530004E4B62E73F4E4E497642884214DBFDF720
:10354000C7F832464B4BFCF788FFFDF7D4F8FDF780
:10355000BFF85A464B46FCF7F8FF00222346FCF71B
:1035600082FF0022234648E74349884214DBFDF7E7
:10357000AFF85246414BFCF770FFFDF7BCF8FDF782
:10358000A7F832463E4BFCF7E0FF00222346FCF74B
:103590006AFF00223B4B30E72946884213DBFCF7E9
:1035A00045FEFDF795F8384A384BFCF7CEFF002270
:1035B0002346FCF758FFFDF772F8C0B2642800D923
:1035C0006420BDE8F09F0020FBE7000000004040C1
:1035D00085EB8140EC51B81E000024403D0AD7A382
:1035E000703D104085EBC13F0080564052B87E4090
:1035F0007B14AE47D7A3703D0AD70F40E17AB43FA2
:103600000000544048E17A40B81E85EB51B8AE3F07
:10361000285C0F400080514014AE77409A999999E8
:103620009999A93FF6285C8FC2F50E4000004E40E4
:10363000E17A74408FC2F5285C8F0E40000049404B
:103640005C8F724051B89E3F52B81E85EB510E40C0
:1036500000004440AE477140F5280E40E17A943FA7
:1036600000003E40295C6F4085EB0D400000344077
:103670001F856B40A3700D40CDCC5C4099990B40E9
:10368000A370CD3F00001440CDCCCCCCCCCCDC3FE3
:1036900010B50C4C0C48FDF7A5FB0B48FDF7E6FAFE
:1036A000FCF7CBFF2146FCF7C7FD0849FCF7C4FD3A
:1036B000074988600846FFF78BFB064908600868E1
:1036C00010BD00009A995940A40500204DF4F93A24
:1036D00034060020840000200349012801D000287E
:1036E00000D10870704700000A00002070470000F9
:1036F000064810B50178064809B10168491C016007
:10370000FDF724FFBDE81040FEF704BB0B000020CE
:103710001400002030B595B001210804CDE9001057
:103720000024029402250491CDE907504FF4E010E3
:1037300009906846FEF738F900B1FEE70F20CDE9A1
:103740000A054FF48060CDE90C4002210AA80E94CE
:10375000FEF728F800B1FEE74FF4804011900F9576
:103760000FA8FDF7ABFF00B1FEE7FEF7C1F84FF47D
:103770007A71B0FBF1F0FEF7B9FA0420FEF790FA87
:1037800000221146501EFDF767FF15B030BD000046
:103790000D48016841F00101016041680B4A114088
:1037A000416001680A4A11400160016821F48021EA
:1037B0000160416821F4FE0141604FF41F01816006
:1037C0000449C00308607047001002400000FFF881
:1037D000FFFFF6FE08ED00E00148FEF725BC000003
:1037E000980000200148FEF71FBC000018010020CF
:1037F0000148FEF719BC0000D80000200148FEF780
:1038000013BC000058010020F0B502681C4D1D4E8D
:103810001D4FDFF878C01E4B4FF0804EA84209D0F4
:10382000984207D0704505D0B04203D0B84201D0CD
:10383000604503D122F070044A682243A84209D0AF
:10384000984207D0704505D0B04203D0B84201D0AD
:10385000604503D122F44074CA6822434C6922F0C7
:103860008002144304608A68C2620A688262A842C5
:1038700001D0984201D10969016301214161F0BD84
:10388000002C01400004004000080040000C0040F3
:103890000034014010B50123046A8B409C4304624C
:1038A000036A8A401343036210BD0000F0B5026A48
:1038B00022F001020262026A43688469114E24F018
:1038C00073050C68104F2C4322F002058A682A43C6
:1038D000B04201D0B84205D122F00805CA682A4397
:1038E00022F00402B04201D0B84205D14D6923F460
:1038F00040731D438B692B43436084614968416376
:103900000262F0BD002C014000340140F0B5026AB3
:1039100022F010020262026A436884690D6824F48E
:10392000E64444EA05248D6822F0200242EA0512AA
:103930000F4D104EA84201D0B04206D1CF6822F000
:10394000800242EA071222F04002A84201D0B042AF
:1039500007D14D6923F4406343EA85038D6943EA47
:10396000850343608461496881630262F0BD0000A1
:10397000002C014000340140F0B5026A22F480724C
:103980000262026A4368C46922F4007224F073057B
:103990000C68124E2C438D6842EA05220E4DA84257
:1039A00001D0B04206D1CF6822F4006242EA072279
:1039B00022F48062A84201D0B04207D14D6923F4BD
:1039C000405343EA05138D6943EA05134360C4611C
:1039D0004968C1630262F0BD002C0140003401401F
:1039E00030B5026A22F480520262036A4268C469F6
:1039F0000D6824F4E64444EA05248D6823F400535A
:103A000043EA0533084DA84202D0084DA84204D12C
:103A10004D6922F4804242EA85124260C4614968DD
:103A20000164036230BD0000002C014000340140FD
:103A3000064810B500680068C00602D5034800F0CB
:103A40000BFABDE810400148FEF716BD2C0300201C
:103A50000148FEF711BD0000D003002010B5406AF8
:103A60000021C185C184FEF7E0FC10BD70B5446A39
:103A70002068406994F83910C0F3C010002521294E
:103A800004D118B1E584204600F046F8206840696A
:103A900094F83A10C0F38010222904D118B1E585BA
:103AA000204600F02BF8E06B40F01000E063204669
:103AB000FEF7BBFC70BD10B50146406A0968096895
:103AC000890613D40021C1850168CA6822F4807276
:103AD000CA6001684A6922F001024A6101684A69C4
:103AE00022F040024A61202180F83A10FFF732F8B4
:103AF00010BD10B5406AFFF747F810BD0168CA68ED
:103B000022F49072CA6001684A6922F001024A6197
:103B1000202180F83A1070470168CA6822F0C0027C
:103B2000CA60202180F83910704710B590F83A101B
:103B3000222901D0022010BD8168B1F5805F11D02B
:103B40000169002901681FD0496801F07F03816A7B
:103B50004A1C82620B70C18D491E0904090CC18583
:103B600018D02BE00269816A002A0268526805D0E9
:103B7000D2B20A80816A491C8162ECE7C2F3080272
:103B80000A80816A891CF7E74A68816A4B1C836254
:103B90000A70E0E70168CA6822F02002CA60016882
:103BA000CA6822F48072CA6001684A6922F0010280
:103BB0004A61202180F83A10FEF7CCFF002010BDAA
:103BC0002DE9F041044600680169E26821F44051A2
:103BD00011430161A16820690143606901432068C4
:103BE000C26841F20C639A430A43C260206841698B
:103BF000A26921F44071114341614C492068642657
:103C0000322788423CD1FDF789FE00EBC00101EB71
:103C1000001061688900B0FBF1F5FDF77FFE00EB55
:103C2000C00101EB00106168B8468900B0FBF1F0FB
:103C3000B0FBF6F06FF01801484305EB800107EB8D
:103C40000110B0FBF6F000F0F005FDF767FE00EBA9
:103C5000C00101EB001061688900B0FBF1F0B0FB1E
:103C6000F6F005EB0015FDF759FE00EBC00101EB86
:103C7000001061688900B0FBF1F7FDF74FFE3BE0F3
:103C8000FDF73CFE00EBC00101EB0010616889000C
:103C9000B0FBF1F5FDF732FE00EBC00101EB0010C7
:103CA0006168B8468900B0FBF1F0B0FBF6F06FF048
:103CB0001801484305EB800107EB0110B0FBF6F05B
:103CC00000F0F005FDF71AFE00EBC00101EB00105B
:103CD00061688900B0FBF1F0B0FBF6F005EB001570
:103CE000FDF70CFE00EBC00101EB001061688900DC
:103CF000B0FBF1F7FDF702FE00EBC00101EB001095
:103D000061688900B0FBF1F0B0FBF6F06FF01801CC
:103D1000484307EB800108EB0110B0FBF6F0216887
:103D200000F00F0028448860BDE8F08100380140B1
:103D300090F83910212901D0022070478168B1F52F
:103D4000805F016A0BD04A1C0262026809785160E8
:103D5000C18C491E0904090CC1840ED017E00988E2
:103D60000268C1F30801516001690029016A02D0AB
:103D7000491C0162ECE7891CFBE70168CA6822F074
:103D80008002CA600068C16841F04001C160002043
:103D900070472DE9F0411E46174688460446069DA9
:103DA0001CE0681C1AD025B1FDF7CAFB801BA84295
:103DB00014D92068C16821F4D071C16020684169BC
:103DC00021F001014161202084F8390084F83A0093
:103DD000002084F838000320BDE8F08120680168E5
:103DE00038EA010004D00020B842DAD00020F3E71E
:103DF0000120F9E7064810B500680068C00602D542
:103E0000034800F029F8BDE810400148FEF734BB34
:103E100098010020064810B500680068C00602D569
:103E2000034800F019F8BDE810400148FEF724BB34
:103E30002C020020064810B500680068C00602D5B4
:103E4000034800F009F8BDE810400148FEF714BB34
:103E50006C020020FEE7000038B5016804460868DF
:103E6000C043C0064DD42748814210D10868486835
:103E70000090086848682448006840682046FEF7BB
:103E8000A8FA21490F2210392046FEF7EDFD1F49FF
:103E90002068884208D10168406800901A480122D1
:103EA0001B494430FEF72CFE1A482168814210D18C
:103EB000086848680090086848681348C43000687B
:103EC00040682046FEF785FA1E2213492046FEF779
:103ED000CBFD12482168814213D1086848680090E0
:103EE000086848680C489C30006840682046FEF727
:103EF00070FA2046BDE8384007491E227C31FEF7A3
:103F0000B3BD38BD00380140E80100200044004046
:103F10001D00002000480040F0020020004C00403E
:103F20002DE9F047FCF784FD9148B0F906809148EF
:103F3000B0F906709048B0F906609048B0F9069064
:103F40008F4D2888DFF83CA28F4CB8B1B5F900003E
:103F5000002815DDFFF73CF9B5F90000FCF764FB1C
:103F60005146FCF79BF9FCF76DFB02B241468748CE
:103F7000FEF7B6FEA968FCF75CF914E0AC6013E04C
:103F8000FFF72EF9B5F90000FCF74EFB5146FCF7A0
:103F900085F9FCF757FB02B241467C48FEF7A0FECC
:103FA000A968FCF7F1F8A8606888B8B1B5F9020013
:103FB000002815DDFFF724F9B5F90200FCF734FB02
:103FC0005146FCF76BF9FCF73DFB02B239467048ED
:103FD000FEF786FEE968FCF72CF914E0EC6013E0CC
:103FE000FFF706F9B5F90200FCF71EFB5146FCF796
:103FF00055F9FCF727FB02B239466548FEF770FE1B
:10400000E968FCF7C1F8E860A888B8B1B5F9040020
:10401000002815DDFFF7FCF8B5F90400FCF704FBF8
:104020005146FCF73BF9FCF70DFB02B2314659480B
:10403000FEF756FE2969FCF7FCF814E02C6113E04A
:10404000FFF7EEF8B5F90400FCF7EEFA5146FCF77D
:1040500025F9FCF7F7FA02B231464E48FEF740FE6A
:104060002969FCF791F82861E888B8B1B5F906002C
:10407000002815DDFFF7E4F8B5F90600FCF7D4FADF
:104080005146FCF70BF9FCF7DDFA02B2494642480B
:10409000FEF726FE6969FCF7CCF814E06C6113E0CA
:1040A000FFF7C6F8B5F90600FCF7BEFA5146FCF773
:1040B000F5F8FCF7C7FA02B249463748FEF710FE9A
:1040C0006969FCF761F86861A868344A0021A04278
:1040D00001DDAC6002E0904200D3A960E868A04234
:1040E00001DDEC6002E0904200D3E9602869A04263
:1040F00001DD2C6102E0904200D329616869A04291
:1041000001DD6C6102E0904200D36961288818B932
:10411000B8F1000F00D1AC60688808B907B9EC604D
:10412000A88808B906B92C61E88818B9B9F1000F58
:1041300000D16C61A868FCF79EFA194980B208604A
:10414000E868FCF798FA164980B2091D08602869EA
:10415000FCF791FA124980B2083108606869FCF7EF
:104160008AFA0F4980B20C310860BDE8F087000080
:10417000780000206800002070000020600000200F
:104180004000002078F0C13F00007A44D4050020B0
:10419000EC050020040600201C06002000008080A2
:1041A0003434014002E008C8121F08C1002AFAD1C5
:1041B00070477047002001E001C1121F002AFBD1A7
:1041C0007047FDF7CBF9FFF7A5FAFEF7FFFEFFF703
:1041D0003FF8FEF713FEFEF72FFEFEF767FEFEF731
:1041E00095FEFEF7C3FEFEF78DFFFEF7B1FFFEF76B
:1041F000CBFFFEF743FFFEF767FFFEF731FDFEF74B
:104200004FFDFEF73DFDFEF75BFDFFF79BF8FCF76A
:10421000FBFBFEF7D5FDFCF773FCFFF73BF800F066
:1042200001F8F8E70848094900680A69821A142A5F
:1042300008D30861C86840F21452904202D30020AB
:10424000C8708870704700009000002008000020AF
:104250000000000000000000010203040607080936
:104260000000000001020304884200080000002052
:1042700098000000A4410008204300089800002096
:10428000A8090000B4410008000000000000000080
:10429000000000000000000000000000000000001E
:1042A000000000000100000000000000000000000D
:1042B00000000000000000000000000000000000FE
:1042C00000000000000000000000000000000000EE
:1042D00000000000000000000000000000000000DE
:1042E00000000000000000000000000000000000CE
:1042F00000000000000000000000000000000000BE
:1043000000000000000000000000000000000000AD
:1043100001000000100000000000000000A24A049C
:0400000508000131BD
:00000001FF
